{
  "_format": "hh-sol-artifact-1",
  "contractName": "TabContract",
  "sourceName": "contracts/TabContract.sol",
  "abi": [
    {
      "inputs": [
        {
          "internalType": "address",
          "name": "taskContractAddress",
          "type": "address"
        }
      ],
      "stateMutability": "nonpayable",
      "type": "constructor"
    },
    {
      "anonymous": false,
      "inputs": [
        {
          "indexed": true,
          "internalType": "address",
          "name": "user",
          "type": "address"
        },
        {
          "indexed": false,
          "internalType": "string",
          "name": "tabId",
          "type": "string"
        },
        {
          "indexed": false,
          "internalType": "string",
          "name": "ipfsHash",
          "type": "string"
        }
      ],
      "name": "TabCreated",
      "type": "event"
    },
    {
      "anonymous": false,
      "inputs": [
        {
          "indexed": true,
          "internalType": "address",
          "name": "user",
          "type": "address"
        },
        {
          "indexed": false,
          "internalType": "string",
          "name": "tabId",
          "type": "string"
        }
      ],
      "name": "TabDeleted",
      "type": "event"
    },
    {
      "anonymous": false,
      "inputs": [
        {
          "indexed": true,
          "internalType": "address",
          "name": "user",
          "type": "address"
        },
        {
          "indexed": false,
          "internalType": "string",
          "name": "tabId",
          "type": "string"
        },
        {
          "indexed": false,
          "internalType": "string",
          "name": "newIpfsHash",
          "type": "string"
        }
      ],
      "name": "TabEdited",
      "type": "event"
    },
    {
      "inputs": [
        {
          "internalType": "string",
          "name": "id",
          "type": "string"
        },
        {
          "internalType": "string",
          "name": "ipfsHash",
          "type": "string"
        }
      ],
      "name": "createTab",
      "outputs": [],
      "stateMutability": "nonpayable",
      "type": "function"
    },
    {
      "inputs": [
        {
          "internalType": "string",
          "name": "id",
          "type": "string"
        }
      ],
      "name": "deleteTab",
      "outputs": [],
      "stateMutability": "nonpayable",
      "type": "function"
    },
    {
      "inputs": [
        {
          "internalType": "string",
          "name": "id",
          "type": "string"
        },
        {
          "internalType": "string",
          "name": "newIpfsHash",
          "type": "string"
        }
      ],
      "name": "editTab",
      "outputs": [],
      "stateMutability": "nonpayable",
      "type": "function"
    },
    {
      "inputs": [],
      "name": "getTabs",
      "outputs": [
        {
          "components": [
            {
              "internalType": "string",
              "name": "id",
              "type": "string"
            },
            {
              "internalType": "string",
              "name": "ipfsHash",
              "type": "string"
            },
            {
              "internalType": "address",
              "name": "owner",
              "type": "address"
            }
          ],
          "internalType": "struct TabContract.TabStruct[]",
          "name": "",
          "type": "tuple[]"
        }
      ],
      "stateMutability": "view",
      "type": "function"
    }
  ],
  "bytecode": "0x60806040523480156200001157600080fd5b5060405162001796380380620017968339818101604052810190620000379190620000e8565b806000806101000a81548173ffffffffffffffffffffffffffffffffffffffff021916908373ffffffffffffffffffffffffffffffffffffffff160217905550506200011a565b600080fd5b600073ffffffffffffffffffffffffffffffffffffffff82169050919050565b6000620000b08262000083565b9050919050565b620000c281620000a3565b8114620000ce57600080fd5b50565b600081519050620000e281620000b7565b92915050565b6000602082840312156200010157620001006200007e565b5b60006200011184828501620000d1565b91505092915050565b61166c806200012a6000396000f3fe608060405234801561001057600080fd5b506004361061004c5760003560e01c8063061920d3146100515780630740a5c01461006f57806351d49f7a1461008b5780638b5b0033146100a7575b600080fd5b6100596100c3565b6040516100669190610cd5565b60405180910390f35b61008960048036038101906100849190610e40565b6102d9565b005b6100a560048036038101906100a09190610e89565b6106d6565b005b6100c160048036038101906100bc9190610e89565b61083e565b005b6060600160003373ffffffffffffffffffffffffffffffffffffffff1673ffffffffffffffffffffffffffffffffffffffff168152602001908152602001600020805480602002602001604051908101604052809291908181526020016000905b828210156102d0578382906000526020600020906003020160405180606001604052908160008201805461015790610f30565b80601f016020809104026020016040519081016040528092919081815260200182805461018390610f30565b80156101d05780601f106101a5576101008083540402835291602001916101d0565b820191906000526020600020905b8154815290600101906020018083116101b357829003601f168201915b505050505081526020016001820180546101e990610f30565b80601f016020809104026020016040519081016040528092919081815260200182805461021590610f30565b80156102625780601f1061023757610100808354040283529160200191610262565b820191906000526020600020905b81548152906001019060200180831161024557829003601f168201915b505050505081526020016002820160009054906101000a900473ffffffffffffffffffffffffffffffffffffffff1673ffffffffffffffffffffffffffffffffffffffff1673ffffffffffffffffffffffffffffffffffffffff168152505081526020019060010190610124565b50505050905090565b6000600160003373ffffffffffffffffffffffffffffffffffffffff1673ffffffffffffffffffffffffffffffffffffffff168152602001908152602001600020905060005b8180549050811015610697578260405160200161033c9190610f9d565b6040516020818303038152906040528051906020012082828154811061036557610364610fb4565b5b9060005260206000209060030201600001604051602001610386919061107b565b604051602081830303815290604052805190602001200361068a573373ffffffffffffffffffffffffffffffffffffffff168282815481106103cb576103ca610fb4565b5b906000526020600020906003020160020160009054906101000a900473ffffffffffffffffffffffffffffffffffffffff1673ffffffffffffffffffffffffffffffffffffffff1614610453576040517f08c379a000000000000000000000000000000000000000000000000000000000815260040161044a90611115565b60405180910390fd5b8160018380549050610465919061116e565b8154811061047657610475610fb4565b5b906000526020600020906003020182828154811061049757610496610fb4565b5b9060005260206000209060030201600082018160000190816104b9919061134f565b50600182018160010190816104ce919061134f565b506002820160009054906101000a900473ffffffffffffffffffffffffffffffffffffffff168160020160006101000a81548173ffffffffffffffffffffffffffffffffffffffff021916908373ffffffffffffffffffffffffffffffffffffffff1602179055509050508180548061054a57610549611437565b5b60019003818190600052602060002090600302016000808201600061056f9190610a8e565b60018201600061057f9190610a8e565b6002820160006101000a81549073ffffffffffffffffffffffffffffffffffffffff02191690555050905560008054906101000a900473ffffffffffffffffffffffffffffffffffffffff1673ffffffffffffffffffffffffffffffffffffffff1663968083e9846040518263ffffffff1660e01b8152600401610603919061149f565b600060405180830381600087803b15801561061d57600080fd5b505af1158015610631573d6000803e3d6000fd5b505050503373ffffffffffffffffffffffffffffffffffffffff167fe39e392a855d852af1ab7784a17924399e41d77861ab18944395dea0b86e623e8460405161067b919061149f565b60405180910390a250506106d3565b808060010191505061031f565b506040517f08c379a00000000000000000000000000000000000000000000000000000000081526004016106ca9061150d565b60405180910390fd5b50565b600060405180606001604052808481526020018381526020013373ffffffffffffffffffffffffffffffffffffffff168152509050600160003373ffffffffffffffffffffffffffffffffffffffff1673ffffffffffffffffffffffffffffffffffffffff1681526020019081526020016000208190806001815401808255809150506001900390600052602060002090600302016000909190919091506000820151816000019081610789919061152d565b50602082015181600101908161079f919061152d565b5060408201518160020160006101000a81548173ffffffffffffffffffffffffffffffffffffffff021916908373ffffffffffffffffffffffffffffffffffffffff16021790555050503373ffffffffffffffffffffffffffffffffffffffff167feff8968ded10d724ae745d525e71b14b66cf6d9e308edfae2666025960419ccc84846040516108319291906115ff565b60405180910390a2505050565b6000600160003373ffffffffffffffffffffffffffffffffffffffff1673ffffffffffffffffffffffffffffffffffffffff168152602001908152602001600020905060005b8180549050811015610a4e57836040516020016108a19190610f9d565b604051602081830303815290604052805190602001208282815481106108ca576108c9610fb4565b5b90600052602060002090600302016000016040516020016108eb919061107b565b6040516020818303038152906040528051906020012003610a41573373ffffffffffffffffffffffffffffffffffffffff168282815481106109305761092f610fb4565b5b906000526020600020906003020160020160009054906101000a900473ffffffffffffffffffffffffffffffffffffffff1673ffffffffffffffffffffffffffffffffffffffff16146109b8576040517f08c379a00000000000000000000000000000000000000000000000000000000081526004016109af90611115565b60405180910390fd5b828282815481106109cc576109cb610fb4565b5b906000526020600020906003020160010190816109e9919061152d565b503373ffffffffffffffffffffffffffffffffffffffff167fa13708634b6ce8ee8c63b30b038ad13ae134c400fc2138501cf4b53d657f02578585604051610a329291906115ff565b60405180910390a25050610a8a565b8080600101915050610884565b506040517f08c379a0000000000000000000000000000000000000000000000000000000008152600401610a819061150d565b60405180910390fd5b5050565b508054610a9a90610f30565b6000825580601f10610aac5750610acb565b601f016020900490600052602060002090810190610aca9190610ace565b5b50565b5b80821115610ae7576000816000905550600101610acf565b5090565b600081519050919050565b600082825260208201905092915050565b6000819050602082019050919050565b600081519050919050565b600082825260208201905092915050565b60005b83811015610b51578082015181840152602081019050610b36565b60008484015250505050565b6000601f19601f8301169050919050565b6000610b7982610b17565b610b838185610b22565b9350610b93818560208601610b33565b610b9c81610b5d565b840191505092915050565b600073ffffffffffffffffffffffffffffffffffffffff82169050919050565b6000610bd282610ba7565b9050919050565b610be281610bc7565b82525050565b60006060830160008301518482036000860152610c058282610b6e565b91505060208301518482036020860152610c1f8282610b6e565b9150506040830151610c346040860182610bd9565b508091505092915050565b6000610c4b8383610be8565b905092915050565b6000602082019050919050565b6000610c6b82610aeb565b610c758185610af6565b935083602082028501610c8785610b07565b8060005b85811015610cc35784840389528151610ca48582610c3f565b9450610caf83610c53565b925060208a01995050600181019050610c8b565b50829750879550505050505092915050565b60006020820190508181036000830152610cef8184610c60565b905092915050565b6000604051905090565b600080fd5b600080fd5b600080fd5b600080fd5b7f4e487b7100000000000000000000000000000000000000000000000000000000600052604160045260246000fd5b610d4d82610b5d565b810181811067ffffffffffffffff82111715610d6c57610d6b610d15565b5b80604052505050565b6000610d7f610cf7565b9050610d8b8282610d44565b919050565b600067ffffffffffffffff821115610dab57610daa610d15565b5b610db482610b5d565b9050602081019050919050565b82818337600083830152505050565b6000610de3610dde84610d90565b610d75565b905082815260208101848484011115610dff57610dfe610d10565b5b610e0a848285610dc1565b509392505050565b600082601f830112610e2757610e26610d0b565b5b8135610e37848260208601610dd0565b91505092915050565b600060208284031215610e5657610e55610d01565b5b600082013567ffffffffffffffff811115610e7457610e73610d06565b5b610e8084828501610e12565b91505092915050565b60008060408385031215610ea057610e9f610d01565b5b600083013567ffffffffffffffff811115610ebe57610ebd610d06565b5b610eca85828601610e12565b925050602083013567ffffffffffffffff811115610eeb57610eea610d06565b5b610ef785828601610e12565b9150509250929050565b7f4e487b7100000000000000000000000000000000000000000000000000000000600052602260045260246000fd5b60006002820490506001821680610f4857607f821691505b602082108103610f5b57610f5a610f01565b5b50919050565b600081905092915050565b6000610f7782610b17565b610f818185610f61565b9350610f91818560208601610b33565b80840191505092915050565b6000610fa98284610f6c565b915081905092915050565b7f4e487b7100000000000000000000000000000000000000000000000000000000600052603260045260246000fd5b60008190508160005260206000209050919050565b6000815461100581610f30565b61100f8186610f61565b9450600182166000811461102a576001811461103f57611072565b60ff1983168652811515820286019350611072565b61104885610fe3565b60005b8381101561106a5781548189015260018201915060208101905061104b565b838801955050505b50505092915050565b60006110878284610ff8565b915081905092915050565b600082825260208201905092915050565b7f596f7520617265206e6f7420746865206f776e6572206f66207468697320746160008201527f6200000000000000000000000000000000000000000000000000000000000000602082015250565b60006110ff602183611092565b915061110a826110a3565b604082019050919050565b6000602082019050818103600083015261112e816110f2565b9050919050565b6000819050919050565b7f4e487b7100000000000000000000000000000000000000000000000000000000600052601160045260246000fd5b600061117982611135565b915061118483611135565b925082820390508181111561119c5761119b61113f565b5b92915050565b6000815490506111b181610f30565b9050919050565b60006020601f8301049050919050565b600082821b905092915050565b6000600883026112057fffffffffffffffffffffffffffffffffffffffffffffffffffffffffffffffff826111c8565b61120f86836111c8565b95508019841693508086168417925050509392505050565b6000819050919050565b600061124c61124761124284611135565b611227565b611135565b9050919050565b6000819050919050565b61126683611231565b61127a61127282611253565b8484546111d5565b825550505050565b600090565b61128f611282565b61129a81848461125d565b505050565b5b818110156112be576112b3600082611287565b6001810190506112a0565b5050565b601f821115611303576112d481610fe3565b6112dd846111b8565b810160208510156112ec578190505b6113006112f8856111b8565b83018261129f565b50505b505050565b600082821c905092915050565b600061132660001984600802611308565b1980831691505092915050565b600061133f8383611315565b9150826002028217905092915050565b81810361135d575050611435565b611366826111a2565b67ffffffffffffffff81111561137f5761137e610d15565b5b6113898254610f30565b6113948282856112c2565b6000601f8311600181146113c357600084156113b1578287015490505b6113bb8582611333565b86555061142e565b601f1984166113d187610fe3565b96506113dc86610fe3565b60005b82811015611404578489015482556001820191506001850194506020810190506113df565b86831015611421578489015461141d601f891682611315565b8355505b6001600288020188555050505b5050505050505b565b7f4e487b7100000000000000000000000000000000000000000000000000000000600052603160045260246000fd5b600061147182610b17565b61147b8185611092565b935061148b818560208601610b33565b61149481610b5d565b840191505092915050565b600060208201905081810360008301526114b98184611466565b905092915050565b7f546162206e6f7420666f756e6400000000000000000000000000000000000000600082015250565b60006114f7600d83611092565b9150611502826114c1565b602082019050919050565b60006020820190508181036000830152611526816114ea565b9050919050565b61153682610b17565b67ffffffffffffffff81111561154f5761154e610d15565b5b6115598254610f30565b6115648282856112c2565b600060209050601f8311600181146115975760008415611585578287015190505b61158f8582611333565b8655506115f7565b601f1984166115a586610fe3565b60005b828110156115cd578489015182556001820191506020850194506020810190506115a8565b868310156115ea57848901516115e6601f891682611315565b8355505b6001600288020188555050505b505050505050565b600060408201905081810360008301526116198185611466565b9050818103602083015261162d8184611466565b9050939250505056fea26469706673582212200f2cd49740836b843fd7b44871316c97731abc2d5549b9ac28f64fbc2d3d4b2364736f6c63430008180033",
  "linkReferences": {},
  "deployedLinkReferences": {}
}