{
  "_format": "hh-sol-artifact-1",
  "contractName": "TaskContract",
  "sourceName": "contracts/TaskContract.sol",
  "abi": [
    {
      "anonymous": false,
      "inputs": [
        {
          "indexed": false,
          "internalType": "string",
          "name": "tabId",
          "type": "string"
        },
        {
          "indexed": false,
          "internalType": "string",
          "name": "taskId",
          "type": "string"
        }
      ],
      "name": "TaskCompleted",
      "type": "event"
    },
    {
      "anonymous": false,
      "inputs": [
        {
          "indexed": false,
          "internalType": "string",
          "name": "tabId",
          "type": "string"
        },
        {
          "indexed": false,
          "internalType": "string",
          "name": "taskId",
          "type": "string"
        },
        {
          "indexed": false,
          "internalType": "string",
          "name": "taskIpfsHash",
          "type": "string"
        }
      ],
      "name": "TaskCreated",
      "type": "event"
    },
    {
      "anonymous": false,
      "inputs": [
        {
          "indexed": false,
          "internalType": "string",
          "name": "tabId",
          "type": "string"
        },
        {
          "indexed": false,
          "internalType": "string",
          "name": "taskId",
          "type": "string"
        }
      ],
      "name": "TaskDeleted",
      "type": "event"
    },
    {
      "anonymous": false,
      "inputs": [
        {
          "indexed": false,
          "internalType": "string",
          "name": "tabId",
          "type": "string"
        },
        {
          "indexed": false,
          "internalType": "string",
          "name": "taskId",
          "type": "string"
        },
        {
          "indexed": false,
          "internalType": "string",
          "name": "newTaskIpfsHash",
          "type": "string"
        }
      ],
      "name": "TaskEdited",
      "type": "event"
    },
    {
      "inputs": [
        {
          "internalType": "string",
          "name": "tabId",
          "type": "string"
        },
        {
          "internalType": "string",
          "name": "taskId",
          "type": "string"
        }
      ],
      "name": "completeTask",
      "outputs": [],
      "stateMutability": "nonpayable",
      "type": "function"
    },
    {
      "inputs": [
        {
          "internalType": "string",
          "name": "tabId",
          "type": "string"
        },
        {
          "internalType": "string",
          "name": "taskId",
          "type": "string"
        },
        {
          "internalType": "string",
          "name": "taskIpfsHash",
          "type": "string"
        }
      ],
      "name": "createTask",
      "outputs": [],
      "stateMutability": "nonpayable",
      "type": "function"
    },
    {
      "inputs": [
        {
          "internalType": "string",
          "name": "tabId",
          "type": "string"
        },
        {
          "internalType": "string",
          "name": "taskId",
          "type": "string"
        }
      ],
      "name": "deleteTask",
      "outputs": [],
      "stateMutability": "nonpayable",
      "type": "function"
    },
    {
      "inputs": [
        {
          "internalType": "string",
          "name": "tabId",
          "type": "string"
        }
      ],
      "name": "deleteTasksForTab",
      "outputs": [],
      "stateMutability": "nonpayable",
      "type": "function"
    },
    {
      "inputs": [
        {
          "internalType": "string",
          "name": "tabId",
          "type": "string"
        },
        {
          "internalType": "string",
          "name": "taskId",
          "type": "string"
        },
        {
          "internalType": "string",
          "name": "newTaskIpfsHash",
          "type": "string"
        }
      ],
      "name": "editTask",
      "outputs": [],
      "stateMutability": "nonpayable",
      "type": "function"
    },
    {
      "inputs": [
        {
          "internalType": "string",
          "name": "tabId",
          "type": "string"
        }
      ],
      "name": "getTasksForTab",
      "outputs": [
        {
          "components": [
            {
              "internalType": "string",
              "name": "taskId",
              "type": "string"
            },
            {
              "internalType": "string",
              "name": "taskIpfsHash",
              "type": "string"
            },
            {
              "internalType": "bool",
              "name": "completed",
              "type": "bool"
            },
            {
              "internalType": "string",
              "name": "tabId",
              "type": "string"
            }
          ],
          "internalType": "struct TaskContract.TaskStruct[]",
          "name": "",
          "type": "tuple[]"
        }
      ],
      "stateMutability": "view",
      "type": "function"
    }
  ],
  "bytecode": "0x608060405234801561001057600080fd5b5061167d806100206000396000f3fe608060405234801561001057600080fd5b50600436106100625760003560e01c80630f692f84146100675780638a1c016b146100835780638d657225146100b3578063968083e9146100cf578063d2344f0a146100eb578063f588195214610107575b600080fd5b610081600480360381019061007c9190610c23565b610123565b005b61009d60048036038101906100989190610c9b565b610293565b6040516100aa9190610eb1565b60405180910390f35b6100cd60048036038101906100c89190610c23565b6104e1565b005b6100e960048036038101906100e49190610c9b565b610743565b005b61010560048036038101906101009190610ed3565b610770565b005b610121600480360381019061011c9190610ed3565b610885565b005b600080836040516101349190610fb6565b9081526020016040518091039020905060005b818054905081101561025357826040516020016101649190610fb6565b6040516020818303038152906040528051906020012082828154811061018d5761018c610fcd565b5b90600052602060002090600402016000016040516020016101ae91906110f4565b60405160208183030381529060405280519060200120036102465760018282815481106101de576101dd610fcd565b5b906000526020600020906004020160020160006101000a81548160ff0219169083151502179055507f33e1d7b1f09af8bbe527ba5b82ea0327002c23b25f5ec71612108ba8c15e49bc8484604051610237929190611155565b60405180910390a1505061028f565b8080600101915050610147565b506040517f08c379a0000000000000000000000000000000000000000000000000000000008152600401610286906111d8565b60405180910390fd5b5050565b60606000826040516102a59190610fb6565b9081526020016040518091039020805480602002602001604051908101604052809291908181526020016000905b828210156104d657838290600052602060002090600402016040518060800160405290816000820180546103069061102b565b80601f01602080910402602001604051908101604052809291908181526020018280546103329061102b565b801561037f5780601f106103545761010080835404028352916020019161037f565b820191906000526020600020905b81548152906001019060200180831161036257829003601f168201915b505050505081526020016001820180546103989061102b565b80601f01602080910402602001604051908101604052809291908181526020018280546103c49061102b565b80156104115780601f106103e657610100808354040283529160200191610411565b820191906000526020600020905b8154815290600101906020018083116103f457829003601f168201915b505050505081526020016002820160009054906101000a900460ff161515151581526020016003820180546104459061102b565b80601f01602080910402602001604051908101604052809291908181526020018280546104719061102b565b80156104be5780601f10610493576101008083540402835291602001916104be565b820191906000526020600020905b8154815290600101906020018083116104a157829003601f168201915b505050505081525050815260200190600101906102d3565b505050509050919050565b600080836040516104f29190610fb6565b9081526020016040518091039020905060005b818054905081101561070357826040516020016105229190610fb6565b6040516020818303038152906040528051906020012082828154811061054b5761054a610fcd565b5b906000526020600020906004020160000160405160200161056c91906110f4565b60405160208183030381529060405280519060200120036106f65781600183805490506105999190611231565b815481106105aa576105a9610fcd565b5b90600052602060002090600402018282815481106105cb576105ca610fcd565b5b9060005260206000209060040201600082018160000190816105ed9190611412565b50600182018160010190816106029190611412565b506002820160009054906101000a900460ff168160020160006101000a81548160ff021916908315150217905550600382018160030190816106449190611412565b5090505081805480610659576106586114fa565b5b60019003818190600052602060002090600402016000808201600061067e91906109ed565b60018201600061068e91906109ed565b6002820160006101000a81549060ff02191690556003820160006106b291906109ed565b505090557f271f49c7d639d1d94ea8a3d9732b94dfed3cd30901ad24285901ab9fbd6c640884846040516106e7929190611155565b60405180910390a1505061073f565b8080600101915050610505565b506040517f08c379a0000000000000000000000000000000000000000000000000000000008152600401610736906111d8565b60405180910390fd5b5050565b6000816040516107539190610fb6565b9081526020016040518091039020600061076d9190610a2d565b50565b600060405180608001604052808481526020018381526020016000151581526020018581525090506000846040516107a89190610fb6565b908152602001604051809103902081908060018154018082558091505060019003906000526020600020906004020160009091909190915060008201518160000190816107f59190611529565b50602082015181600101908161080b9190611529565b5060408201518160020160006101000a81548160ff02191690831515021790555060608201518160030190816108419190611529565b5050507f84ea87c5705f473b2c755c8933fdd190894e1ea154edab03ba3d3dde84f4f6de848484604051610877939291906115fb565b60405180910390a150505050565b600080846040516108969190610fb6565b9081526020016040518091039020905060005b81805490508110156109ac57836040516020016108c69190610fb6565b604051602081830303815290604052805190602001208282815481106108ef576108ee610fcd565b5b906000526020600020906004020160000160405160200161091091906110f4565b604051602081830303815290604052805190602001200361099f578282828154811061093f5761093e610fcd565b5b9060005260206000209060040201600101908161095c9190611529565b507f9207a5191162fbfa9a8d9a778be6d6c4d36bcf5c0df5c98cde9425e4ee4813e8858585604051610990939291906115fb565b60405180910390a150506109e8565b80806001019150506108a9565b506040517f08c379a00000000000000000000000000000000000000000000000000000000081526004016109df906111d8565b60405180910390fd5b505050565b5080546109f99061102b565b6000825580601f10610a0b5750610a2a565b601f016020900490600052602060002090810190610a299190610a51565b5b50565b5080546000825560040290600052602060002090810190610a4e9190610a6e565b50565b5b80821115610a6a576000816000905550600101610a52565b5090565b5b80821115610ac55760008082016000610a8891906109ed565b600182016000610a9891906109ed565b6002820160006101000a81549060ff0219169055600382016000610abc91906109ed565b50600401610a6f565b5090565b6000604051905090565b600080fd5b600080fd5b600080fd5b600080fd5b6000601f19601f8301169050919050565b7f4e487b7100000000000000000000000000000000000000000000000000000000600052604160045260246000fd5b610b3082610ae7565b810181811067ffffffffffffffff82111715610b4f57610b4e610af8565b5b80604052505050565b6000610b62610ac9565b9050610b6e8282610b27565b919050565b600067ffffffffffffffff821115610b8e57610b8d610af8565b5b610b9782610ae7565b9050602081019050919050565b82818337600083830152505050565b6000610bc6610bc184610b73565b610b58565b905082815260208101848484011115610be257610be1610ae2565b5b610bed848285610ba4565b509392505050565b600082601f830112610c0a57610c09610add565b5b8135610c1a848260208601610bb3565b91505092915050565b60008060408385031215610c3a57610c39610ad3565b5b600083013567ffffffffffffffff811115610c5857610c57610ad8565b5b610c6485828601610bf5565b925050602083013567ffffffffffffffff811115610c8557610c84610ad8565b5b610c9185828601610bf5565b9150509250929050565b600060208284031215610cb157610cb0610ad3565b5b600082013567ffffffffffffffff811115610ccf57610cce610ad8565b5b610cdb84828501610bf5565b91505092915050565b600081519050919050565b600082825260208201905092915050565b6000819050602082019050919050565b600081519050919050565b600082825260208201905092915050565b60005b83811015610d4a578082015181840152602081019050610d2f565b60008484015250505050565b6000610d6182610d10565b610d6b8185610d1b565b9350610d7b818560208601610d2c565b610d8481610ae7565b840191505092915050565b60008115159050919050565b610da481610d8f565b82525050565b60006080830160008301518482036000860152610dc78282610d56565b91505060208301518482036020860152610de18282610d56565b9150506040830151610df66040860182610d9b565b5060608301518482036060860152610e0e8282610d56565b9150508091505092915050565b6000610e278383610daa565b905092915050565b6000602082019050919050565b6000610e4782610ce4565b610e518185610cef565b935083602082028501610e6385610d00565b8060005b85811015610e9f5784840389528151610e808582610e1b565b9450610e8b83610e2f565b925060208a01995050600181019050610e67565b50829750879550505050505092915050565b60006020820190508181036000830152610ecb8184610e3c565b905092915050565b600080600060608486031215610eec57610eeb610ad3565b5b600084013567ffffffffffffffff811115610f0a57610f09610ad8565b5b610f1686828701610bf5565b935050602084013567ffffffffffffffff811115610f3757610f36610ad8565b5b610f4386828701610bf5565b925050604084013567ffffffffffffffff811115610f6457610f63610ad8565b5b610f7086828701610bf5565b9150509250925092565b600081905092915050565b6000610f9082610d10565b610f9a8185610f7a565b9350610faa818560208601610d2c565b80840191505092915050565b6000610fc28284610f85565b915081905092915050565b7f4e487b7100000000000000000000000000000000000000000000000000000000600052603260045260246000fd5b7f4e487b7100000000000000000000000000000000000000000000000000000000600052602260045260246000fd5b6000600282049050600182168061104357607f821691505b60208210810361105657611055610ffc565b5b50919050565b60008190508160005260206000209050919050565b6000815461107e8161102b565b6110888186610f7a565b945060018216600081146110a357600181146110b8576110eb565b60ff19831686528115158202860193506110eb565b6110c18561105c565b60005b838110156110e3578154818901526001820191506020810190506110c4565b838801955050505b50505092915050565b60006111008284611071565b915081905092915050565b600082825260208201905092915050565b600061112782610d10565b611131818561110b565b9350611141818560208601610d2c565b61114a81610ae7565b840191505092915050565b6000604082019050818103600083015261116f818561111c565b90508181036020830152611183818461111c565b90509392505050565b7f5461736b206e6f7420666f756e64000000000000000000000000000000000000600082015250565b60006111c2600e8361110b565b91506111cd8261118c565b602082019050919050565b600060208201905081810360008301526111f1816111b5565b9050919050565b6000819050919050565b7f4e487b7100000000000000000000000000000000000000000000000000000000600052601160045260246000fd5b600061123c826111f8565b9150611247836111f8565b925082820390508181111561125f5761125e611202565b5b92915050565b6000815490506112748161102b565b9050919050565b60006020601f8301049050919050565b600082821b905092915050565b6000600883026112c87fffffffffffffffffffffffffffffffffffffffffffffffffffffffffffffffff8261128b565b6112d2868361128b565b95508019841693508086168417925050509392505050565b6000819050919050565b600061130f61130a611305846111f8565b6112ea565b6111f8565b9050919050565b6000819050919050565b611329836112f4565b61133d61133582611316565b848454611298565b825550505050565b600090565b611352611345565b61135d818484611320565b505050565b5b818110156113815761137660008261134a565b600181019050611363565b5050565b601f8211156113c6576113978161105c565b6113a08461127b565b810160208510156113af578190505b6113c36113bb8561127b565b830182611362565b50505b505050565b600082821c905092915050565b60006113e9600019846008026113cb565b1980831691505092915050565b600061140283836113d8565b9150826002028217905092915050565b8181036114205750506114f8565b61142982611265565b67ffffffffffffffff81111561144257611441610af8565b5b61144c825461102b565b611457828285611385565b6000601f8311600181146114865760008415611474578287015490505b61147e85826113f6565b8655506114f1565b601f1984166114948761105c565b965061149f8661105c565b60005b828110156114c7578489015482556001820191506001850194506020810190506114a2565b868310156114e457848901546114e0601f8916826113d8565b8355505b6001600288020188555050505b5050505050505b565b7f4e487b7100000000000000000000000000000000000000000000000000000000600052603160045260246000fd5b61153282610d10565b67ffffffffffffffff81111561154b5761154a610af8565b5b611555825461102b565b611560828285611385565b600060209050601f8311600181146115935760008415611581578287015190505b61158b85826113f6565b8655506115f3565b601f1984166115a18661105c565b60005b828110156115c9578489015182556001820191506020850194506020810190506115a4565b868310156115e657848901516115e2601f8916826113d8565b8355505b6001600288020188555050505b505050505050565b60006060820190508181036000830152611615818661111c565b90508181036020830152611629818561111c565b9050818103604083015261163d818461111c565b905094935050505056fea2646970667358221220ac9c2de9f16859d072bf4b53e22c962c1e79222d7090e322e1be1812ccd2ab7764736f6c63430008180033",
  "linkReferences": {},
  "deployedLinkReferences": {}
}